{
  "_format": "hh-sol-artifact-1",
  "contractName": "ProfileNFT",
  "sourceName": "contracts/identity/ProfileNFT.sol",
  "abi": [
    {
      "inputs": [
        {
          "internalType": "string",
          "name": "name",
          "type": "string"
        },
        {
          "internalType": "string",
          "name": "symbol",
          "type": "string"
        },
        {
          "internalType": "address",
          "name": "_tokenQualifier",
          "type": "address"
        }
      ],
      "stateMutability": "nonpayable",
      "type": "constructor"
    },
    {
      "inputs": [],
      "name": "AccessControlBadConfirmation",
      "type": "error"
    },
    {
      "inputs": [
        {
          "internalType": "address",
          "name": "account",
          "type": "address"
        },
        {
          "internalType": "bytes32",
          "name": "neededRole",
          "type": "bytes32"
        }
      ],
      "name": "AccessControlUnauthorizedAccount",
      "type": "error"
    },
    {
      "inputs": [
        {
          "internalType": "address",
          "name": "sender",
          "type": "address"
        },
        {
          "internalType": "uint256",
          "name": "tokenId",
          "type": "uint256"
        },
        {
          "internalType": "address",
          "name": "owner",
          "type": "address"
        }
      ],
      "name": "ERC721IncorrectOwner",
      "type": "error"
    },
    {
      "inputs": [
        {
          "internalType": "address",
          "name": "operator",
          "type": "address"
        },
        {
          "internalType": "uint256",
          "name": "tokenId",
          "type": "uint256"
        }
      ],
      "name": "ERC721InsufficientApproval",
      "type": "error"
    },
    {
      "inputs": [
        {
          "internalType": "address",
          "name": "approver",
          "type": "address"
        }
      ],
      "name": "ERC721InvalidApprover",
      "type": "error"
    },
    {
      "inputs": [
        {
          "internalType": "address",
          "name": "operator",
          "type": "address"
        }
      ],
      "name": "ERC721InvalidOperator",
      "type": "error"
    },
    {
      "inputs": [
        {
          "internalType": "address",
          "name": "owner",
          "type": "address"
        }
      ],
      "name": "ERC721InvalidOwner",
      "type": "error"
    },
    {
      "inputs": [
        {
          "internalType": "address",
          "name": "receiver",
          "type": "address"
        }
      ],
      "name": "ERC721InvalidReceiver",
      "type": "error"
    },
    {
      "inputs": [
        {
          "internalType": "address",
          "name": "sender",
          "type": "address"
        }
      ],
      "name": "ERC721InvalidSender",
      "type": "error"
    },
    {
      "inputs": [
        {
          "internalType": "uint256",
          "name": "tokenId",
          "type": "uint256"
        }
      ],
      "name": "ERC721NonexistentToken",
      "type": "error"
    },
    {
      "inputs": [],
      "name": "ReentrancyGuardReentrantCall",
      "type": "error"
    },
    {
      "inputs": [
        {
          "internalType": "uint256",
          "name": "value",
          "type": "uint256"
        },
        {
          "internalType": "uint256",
          "name": "length",
          "type": "uint256"
        }
      ],
      "name": "StringsInsufficientHexLength",
      "type": "error"
    },
    {
      "anonymous": false,
      "inputs": [
        {
          "indexed": true,
          "internalType": "address",
          "name": "owner",
          "type": "address"
        },
        {
          "indexed": true,
          "internalType": "address",
          "name": "approved",
          "type": "address"
        },
        {
          "indexed": true,
          "internalType": "uint256",
          "name": "tokenId",
          "type": "uint256"
        }
      ],
      "name": "Approval",
      "type": "event"
    },
    {
      "anonymous": false,
      "inputs": [
        {
          "indexed": true,
          "internalType": "address",
          "name": "owner",
          "type": "address"
        },
        {
          "indexed": true,
          "internalType": "address",
          "name": "operator",
          "type": "address"
        },
        {
          "indexed": false,
          "internalType": "bool",
          "name": "approved",
          "type": "bool"
        }
      ],
      "name": "ApprovalForAll",
      "type": "event"
    },
    {
      "anonymous": false,
      "inputs": [
        {
          "indexed": true,
          "internalType": "uint256",
          "name": "profileId",
          "type": "uint256"
        },
        {
          "indexed": false,
          "internalType": "string",
          "name": "method",
          "type": "string"
        },
        {
          "indexed": false,
          "internalType": "string",
          "name": "externalId",
          "type": "string"
        }
      ],
      "name": "AuthBindingAdded",
      "type": "event"
    },
    {
      "anonymous": false,
      "inputs": [
        {
          "indexed": true,
          "internalType": "uint256",
          "name": "profileId",
          "type": "uint256"
        },
        {
          "indexed": false,
          "internalType": "string",
          "name": "method",
          "type": "string"
        }
      ],
      "name": "AuthBindingDeactivated",
      "type": "event"
    },
    {
      "anonymous": false,
      "inputs": [
        {
          "indexed": true,
          "internalType": "uint256",
          "name": "profileId",
          "type": "uint256"
        },
        {
          "indexed": true,
          "internalType": "address",
          "name": "owner",
          "type": "address"
        },
        {
          "indexed": false,
          "internalType": "uint256",
          "name": "tier",
          "type": "uint256"
        }
      ],
      "name": "ProfileCreated",
      "type": "event"
    },
    {
      "anonymous": false,
      "inputs": [
        {
          "indexed": true,
          "internalType": "uint256",
          "name": "profileId",
          "type": "uint256"
        },
        {
          "indexed": true,
          "internalType": "address",
          "name": "admin",
          "type": "address"
        }
      ],
      "name": "ProfileSuspended",
      "type": "event"
    },
    {
      "anonymous": false,
      "inputs": [
        {
          "indexed": true,
          "internalType": "uint256",
          "name": "profileId",
          "type": "uint256"
        },
        {
          "indexed": true,
          "internalType": "address",
          "name": "from",
          "type": "address"
        },
        {
          "indexed": true,
          "internalType": "address",
          "name": "to",
          "type": "address"
        }
      ],
      "name": "ProfileTransferred",
      "type": "event"
    },
    {
      "anonymous": false,
      "inputs": [
        {
          "indexed": true,
          "internalType": "uint256",
          "name": "profileId",
          "type": "uint256"
        },
        {
          "indexed": true,
          "internalType": "address",
          "name": "owner",
          "type": "address"
        }
      ],
      "name": "ProfileUpdated",
      "type": "event"
    },
    {
      "anonymous": false,
      "inputs": [
        {
          "indexed": true,
          "internalType": "bytes32",
          "name": "role",
          "type": "bytes32"
        },
        {
          "indexed": true,
          "internalType": "bytes32",
          "name": "previousAdminRole",
          "type": "bytes32"
        },
        {
          "indexed": true,
          "internalType": "bytes32",
          "name": "newAdminRole",
          "type": "bytes32"
        }
      ],
      "name": "RoleAdminChanged",
      "type": "event"
    },
    {
      "anonymous": false,
      "inputs": [
        {
          "indexed": true,
          "internalType": "bytes32",
          "name": "role",
          "type": "bytes32"
        },
        {
          "indexed": true,
          "internalType": "address",
          "name": "account",
          "type": "address"
        },
        {
          "indexed": true,
          "internalType": "address",
          "name": "sender",
          "type": "address"
        }
      ],
      "name": "RoleGranted",
      "type": "event"
    },
    {
      "anonymous": false,
      "inputs": [
        {
          "indexed": true,
          "internalType": "bytes32",
          "name": "role",
          "type": "bytes32"
        },
        {
          "indexed": true,
          "internalType": "address",
          "name": "account",
          "type": "address"
        },
        {
          "indexed": true,
          "internalType": "address",
          "name": "sender",
          "type": "address"
        }
      ],
      "name": "RoleRevoked",
      "type": "event"
    },
    {
      "anonymous": false,
      "inputs": [
        {
          "indexed": true,
          "internalType": "uint256",
          "name": "profileId",
          "type": "uint256"
        },
        {
          "indexed": true,
          "internalType": "address",
          "name": "owner",
          "type": "address"
        },
        {
          "indexed": false,
          "internalType": "uint256",
          "name": "oldTier",
          "type": "uint256"
        },
        {
          "indexed": false,
          "internalType": "uint256",
          "name": "newTier",
          "type": "uint256"
        },
        {
          "indexed": false,
          "internalType": "string",
          "name": "method",
          "type": "string"
        }
      ],
      "name": "TierAdvanced",
      "type": "event"
    },
    {
      "anonymous": false,
      "inputs": [
        {
          "indexed": true,
          "internalType": "address",
          "name": "from",
          "type": "address"
        },
        {
          "indexed": true,
          "internalType": "address",
          "name": "to",
          "type": "address"
        },
        {
          "indexed": true,
          "internalType": "uint256",
          "name": "tokenId",
          "type": "uint256"
        }
      ],
      "name": "Transfer",
      "type": "event"
    },
    {
      "inputs": [],
      "name": "ADMIN_ROLE",
      "outputs": [
        {
          "internalType": "bytes32",
          "name": "",
          "type": "bytes32"
        }
      ],
      "stateMutability": "view",
      "type": "function"
    },
    {
      "inputs": [],
      "name": "DEFAULT_ADMIN_ROLE",
      "outputs": [
        {
          "internalType": "bytes32",
          "name": "",
          "type": "bytes32"
        }
      ],
      "stateMutability": "view",
      "type": "function"
    },
    {
      "inputs": [],
      "name": "MAX_TIER",
      "outputs": [
        {
          "internalType": "uint256",
          "name": "",
          "type": "uint256"
        }
      ],
      "stateMutability": "view",
      "type": "function"
    },
    {
      "inputs": [],
      "name": "TIER_ANONYMOUS",
      "outputs": [
        {
          "internalType": "uint256",
          "name": "",
          "type": "uint256"
        }
      ],
      "stateMutability": "view",
      "type": "function"
    },
    {
      "inputs": [],
      "name": "TIER_BASIC",
      "outputs": [
        {
          "internalType": "uint256",
          "name": "",
          "type": "uint256"
        }
      ],
      "stateMutability": "view",
      "type": "function"
    },
    {
      "inputs": [],
      "name": "TIER_IDENTITY",
      "outputs": [
        {
          "internalType": "uint256",
          "name": "",
          "type": "uint256"
        }
      ],
      "stateMutability": "view",
      "type": "function"
    },
    {
      "inputs": [],
      "name": "TIER_SOCIAL",
      "outputs": [
        {
          "internalType": "uint256",
          "name": "",
          "type": "uint256"
        }
      ],
      "stateMutability": "view",
      "type": "function"
    },
    {
      "inputs": [],
      "name": "VERIFIER_ROLE",
      "outputs": [
        {
          "internalType": "bytes32",
          "name": "",
          "type": "bytes32"
        }
      ],
      "stateMutability": "view",
      "type": "function"
    },
    {
      "inputs": [
        {
          "internalType": "address",
          "name": "",
          "type": "address"
        }
      ],
      "name": "addressToProfileId",
      "outputs": [
        {
          "internalType": "uint256",
          "name": "",
          "type": "uint256"
        }
      ],
      "stateMutability": "view",
      "type": "function"
    },
    {
      "inputs": [
        {
          "internalType": "uint256",
          "name": "profileId",
          "type": "uint256"
        }
      ],
      "name": "adminSuspendProfile",
      "outputs": [],
      "stateMutability": "nonpayable",
      "type": "function"
    },
    {
      "inputs": [
        {
          "internalType": "uint256",
          "name": "profileId",
          "type": "uint256"
        },
        {
          "internalType": "uint256",
          "name": "targetTier",
          "type": "uint256"
        },
        {
          "internalType": "string",
          "name": "method",
          "type": "string"
        }
      ],
      "name": "adminVerifyProfile",
      "outputs": [],
      "stateMutability": "nonpayable",
      "type": "function"
    },
    {
      "inputs": [
        {
          "internalType": "address",
          "name": "to",
          "type": "address"
        },
        {
          "internalType": "uint256",
          "name": "tokenId",
          "type": "uint256"
        }
      ],
      "name": "approve",
      "outputs": [],
      "stateMutability": "nonpayable",
      "type": "function"
    },
    {
      "inputs": [
        {
          "internalType": "address",
          "name": "owner",
          "type": "address"
        }
      ],
      "name": "balanceOf",
      "outputs": [
        {
          "internalType": "uint256",
          "name": "",
          "type": "uint256"
        }
      ],
      "stateMutability": "view",
      "type": "function"
    },
    {
      "inputs": [
        {
          "internalType": "string",
          "name": "displayName",
          "type": "string"
        },
        {
          "internalType": "string",
          "name": "bio",
          "type": "string"
        },
        {
          "internalType": "string",
          "name": "location",
          "type": "string"
        }
      ],
      "name": "createBasicProfile",
      "outputs": [
        {
          "internalType": "uint256",
          "name": "",
          "type": "uint256"
        }
      ],
      "stateMutability": "nonpayable",
      "type": "function"
    },
    {
      "inputs": [
        {
          "internalType": "uint256",
          "name": "tokenId",
          "type": "uint256"
        }
      ],
      "name": "getApproved",
      "outputs": [
        {
          "internalType": "address",
          "name": "",
          "type": "address"
        }
      ],
      "stateMutability": "view",
      "type": "function"
    },
    {
      "inputs": [
        {
          "internalType": "uint256",
          "name": "profileId",
          "type": "uint256"
        }
      ],
      "name": "getAuthBindings",
      "outputs": [
        {
          "components": [
            {
              "internalType": "string",
              "name": "method",
              "type": "string"
            },
            {
              "internalType": "string",
              "name": "externalId",
              "type": "string"
            },
            {
              "internalType": "uint256",
              "name": "verifiedAt",
              "type": "uint256"
            },
            {
              "internalType": "bool",
              "name": "isActive",
              "type": "bool"
            }
          ],
          "internalType": "struct ProfileNFT.AuthBinding[]",
          "name": "",
          "type": "tuple[]"
        }
      ],
      "stateMutability": "view",
      "type": "function"
    },
    {
      "inputs": [
        {
          "internalType": "uint256",
          "name": "profileId",
          "type": "uint256"
        }
      ],
      "name": "getProfile",
      "outputs": [
        {
          "components": [
            {
              "internalType": "uint256",
              "name": "tier",
              "type": "uint256"
            },
            {
              "internalType": "string",
              "name": "did",
              "type": "string"
            },
            {
              "internalType": "string",
              "name": "displayName",
              "type": "string"
            },
            {
              "internalType": "string",
              "name": "bio",
              "type": "string"
            },
            {
              "internalType": "string",
              "name": "location",
              "type": "string"
            },
            {
              "internalType": "string",
              "name": "avatarUrl",
              "type": "string"
            },
            {
              "internalType": "uint256",
              "name": "createdAt",
              "type": "uint256"
            },
            {
              "internalType": "uint256",
              "name": "lastTierUpgrade",
              "type": "uint256"
            },
            {
              "internalType": "bool",
              "name": "isActive",
              "type": "bool"
            },
            {
              "internalType": "bytes32",
              "name": "socialGraphHash",
              "type": "bytes32"
            },
            {
              "internalType": "uint256",
              "name": "connectionCount",
              "type": "uint256"
            },
            {
              "internalType": "uint256",
              "name": "lastSocialUpdate",
              "type": "uint256"
            }
          ],
          "internalType": "struct ProfileNFT.Profile",
          "name": "",
          "type": "tuple"
        }
      ],
      "stateMutability": "view",
      "type": "function"
    },
    {
      "inputs": [
        {
          "internalType": "address",
          "name": "owner",
          "type": "address"
        }
      ],
      "name": "getProfileByAddress",
      "outputs": [
        {
          "components": [
            {
              "internalType": "uint256",
              "name": "tier",
              "type": "uint256"
            },
            {
              "internalType": "string",
              "name": "did",
              "type": "string"
            },
            {
              "internalType": "string",
              "name": "displayName",
              "type": "string"
            },
            {
              "internalType": "string",
              "name": "bio",
              "type": "string"
            },
            {
              "internalType": "string",
              "name": "location",
              "type": "string"
            },
            {
              "internalType": "string",
              "name": "avatarUrl",
              "type": "string"
            },
            {
              "internalType": "uint256",
              "name": "createdAt",
              "type": "uint256"
            },
            {
              "internalType": "uint256",
              "name": "lastTierUpgrade",
              "type": "uint256"
            },
            {
              "internalType": "bool",
              "name": "isActive",
              "type": "bool"
            },
            {
              "internalType": "bytes32",
              "name": "socialGraphHash",
              "type": "bytes32"
            },
            {
              "internalType": "uint256",
              "name": "connectionCount",
              "type": "uint256"
            },
            {
              "internalType": "uint256",
              "name": "lastSocialUpdate",
              "type": "uint256"
            }
          ],
          "internalType": "struct ProfileNFT.Profile",
          "name": "",
          "type": "tuple"
        }
      ],
      "stateMutability": "view",
      "type": "function"
    },
    {
      "inputs": [
        {
          "internalType": "bytes32",
          "name": "role",
          "type": "bytes32"
        }
      ],
      "name": "getRoleAdmin",
      "outputs": [
        {
          "internalType": "bytes32",
          "name": "",
          "type": "bytes32"
        }
      ],
      "stateMutability": "view",
      "type": "function"
    },
    {
      "inputs": [
        {
          "internalType": "bytes32",
          "name": "role",
          "type": "bytes32"
        },
        {
          "internalType": "address",
          "name": "account",
          "type": "address"
        }
      ],
      "name": "grantRole",
      "outputs": [],
      "stateMutability": "nonpayable",
      "type": "function"
    },
    {
      "inputs": [
        {
          "internalType": "address",
          "name": "owner",
          "type": "address"
        }
      ],
      "name": "hasProfile",
      "outputs": [
        {
          "internalType": "bool",
          "name": "",
          "type": "bool"
        }
      ],
      "stateMutability": "view",
      "type": "function"
    },
    {
      "inputs": [
        {
          "internalType": "bytes32",
          "name": "role",
          "type": "bytes32"
        },
        {
          "internalType": "address",
          "name": "account",
          "type": "address"
        }
      ],
      "name": "hasRole",
      "outputs": [
        {
          "internalType": "bool",
          "name": "",
          "type": "bool"
        }
      ],
      "stateMutability": "view",
      "type": "function"
    },
    {
      "inputs": [
        {
          "internalType": "address",
          "name": "owner",
          "type": "address"
        },
        {
          "internalType": "address",
          "name": "operator",
          "type": "address"
        }
      ],
      "name": "isApprovedForAll",
      "outputs": [
        {
          "internalType": "bool",
          "name": "",
          "type": "bool"
        }
      ],
      "stateMutability": "view",
      "type": "function"
    },
    {
      "inputs": [],
      "name": "name",
      "outputs": [
        {
          "internalType": "string",
          "name": "",
          "type": "string"
        }
      ],
      "stateMutability": "view",
      "type": "function"
    },
    {
      "inputs": [
        {
          "internalType": "uint256",
          "name": "tokenId",
          "type": "uint256"
        }
      ],
      "name": "ownerOf",
      "outputs": [
        {
          "internalType": "address",
          "name": "",
          "type": "address"
        }
      ],
      "stateMutability": "view",
      "type": "function"
    },
    {
      "inputs": [
        {
          "internalType": "bytes32",
          "name": "role",
          "type": "bytes32"
        },
        {
          "internalType": "address",
          "name": "callerConfirmation",
          "type": "address"
        }
      ],
      "name": "renounceRole",
      "outputs": [],
      "stateMutability": "nonpayable",
      "type": "function"
    },
    {
      "inputs": [
        {
          "internalType": "bytes32",
          "name": "role",
          "type": "bytes32"
        },
        {
          "internalType": "address",
          "name": "account",
          "type": "address"
        }
      ],
      "name": "revokeRole",
      "outputs": [],
      "stateMutability": "nonpayable",
      "type": "function"
    },
    {
      "inputs": [
        {
          "internalType": "address",
          "name": "from",
          "type": "address"
        },
        {
          "internalType": "address",
          "name": "to",
          "type": "address"
        },
        {
          "internalType": "uint256",
          "name": "tokenId",
          "type": "uint256"
        }
      ],
      "name": "safeTransferFrom",
      "outputs": [],
      "stateMutability": "nonpayable",
      "type": "function"
    },
    {
      "inputs": [
        {
          "internalType": "address",
          "name": "from",
          "type": "address"
        },
        {
          "internalType": "address",
          "name": "to",
          "type": "address"
        },
        {
          "internalType": "uint256",
          "name": "tokenId",
          "type": "uint256"
        },
        {
          "internalType": "bytes",
          "name": "data",
          "type": "bytes"
        }
      ],
      "name": "safeTransferFrom",
      "outputs": [],
      "stateMutability": "nonpayable",
      "type": "function"
    },
    {
      "inputs": [
        {
          "internalType": "address",
          "name": "operator",
          "type": "address"
        },
        {
          "internalType": "bool",
          "name": "approved",
          "type": "bool"
        }
      ],
      "name": "setApprovalForAll",
      "outputs": [],
      "stateMutability": "nonpayable",
      "type": "function"
    },
    {
      "inputs": [
        {
          "internalType": "uint256",
          "name": "profileId",
          "type": "uint256"
        },
        {
          "internalType": "string",
          "name": "kycId",
          "type": "string"
        },
        {
          "internalType": "bytes",
          "name": "proof",
          "type": "bytes"
        }
      ],
      "name": "stepUpWithCrossmint",
      "outputs": [],
      "stateMutability": "payable",
      "type": "function"
    },
    {
      "inputs": [
        {
          "internalType": "uint256",
          "name": "profileId",
          "type": "uint256"
        },
        {
          "internalType": "uint256",
          "name": "fid",
          "type": "uint256"
        },
        {
          "internalType": "bytes",
          "name": "proof",
          "type": "bytes"
        }
      ],
      "name": "stepUpWithFarcaster",
      "outputs": [],
      "stateMutability": "payable",
      "type": "function"
    },
    {
      "inputs": [
        {
          "internalType": "bytes4",
          "name": "interfaceId",
          "type": "bytes4"
        }
      ],
      "name": "supportsInterface",
      "outputs": [
        {
          "internalType": "bool",
          "name": "",
          "type": "bool"
        }
      ],
      "stateMutability": "view",
      "type": "function"
    },
    {
      "inputs": [],
      "name": "symbol",
      "outputs": [
        {
          "internalType": "string",
          "name": "",
          "type": "string"
        }
      ],
      "stateMutability": "view",
      "type": "function"
    },
    {
      "inputs": [],
      "name": "tokenQualifier",
      "outputs": [
        {
          "internalType": "contract ITokenQualifier",
          "name": "",
          "type": "address"
        }
      ],
      "stateMutability": "view",
      "type": "function"
    },
    {
      "inputs": [
        {
          "internalType": "uint256",
          "name": "tokenId",
          "type": "uint256"
        }
      ],
      "name": "tokenURI",
      "outputs": [
        {
          "internalType": "string",
          "name": "",
          "type": "string"
        }
      ],
      "stateMutability": "view",
      "type": "function"
    },
    {
      "inputs": [],
      "name": "totalProfiles",
      "outputs": [
        {
          "internalType": "uint256",
          "name": "",
          "type": "uint256"
        }
      ],
      "stateMutability": "view",
      "type": "function"
    },
    {
      "inputs": [
        {
          "internalType": "address",
          "name": "from",
          "type": "address"
        },
        {
          "internalType": "address",
          "name": "to",
          "type": "address"
        },
        {
          "internalType": "uint256",
          "name": "tokenId",
          "type": "uint256"
        }
      ],
      "name": "transferFrom",
      "outputs": [],
      "stateMutability": "nonpayable",
      "type": "function"
    },
    {
      "inputs": [
        {
          "internalType": "uint256",
          "name": "profileId",
          "type": "uint256"
        },
        {
          "internalType": "string",
          "name": "displayName",
          "type": "string"
        },
        {
          "internalType": "string",
          "name": "bio",
          "type": "string"
        },
        {
          "internalType": "string",
          "name": "location",
          "type": "string"
        },
        {
          "internalType": "string",
          "name": "avatarUrl",
          "type": "string"
        }
      ],
      "name": "updateProfile",
      "outputs": [],
      "stateMutability": "nonpayable",
      "type": "function"
    },
    {
      "inputs": [
        {
          "internalType": "address",
          "name": "_tokenQualifier",
          "type": "address"
        }
      ],
      "name": "updateTokenQualifier",
      "outputs": [],
      "stateMutability": "nonpayable",
      "type": "function"
    },
    {
      "inputs": [
        {
          "internalType": "string",
          "name": "",
          "type": "string"
        }
      ],
      "name": "usedCrossmintIds",
      "outputs": [
        {
          "internalType": "bool",
          "name": "",
          "type": "bool"
        }
      ],
      "stateMutability": "view",
      "type": "function"
    },
    {
      "inputs": [
        {
          "internalType": "uint256",
          "name": "",
          "type": "uint256"
        }
      ],
      "name": "usedFarcasterFids",
      "outputs": [
        {
          "internalType": "bool",
          "name": "",
          "type": "bool"
        }
      ],
      "stateMutability": "view",
      "type": "function"
    },
    {
      "inputs": [],
      "name": "withdraw",
      "outputs": [],
      "stateMutability": "nonpayable",
      "type": "function"
    }
  ],
  "bytecode": "0x60806040526001600e553480156200001657600080fd5b50604051620040ac380380620040ac833981016040819052620000399162000269565b8282600062000049838262000385565b50600162000058828262000385565b50506001600755506200006d600033620000f1565b506200009a7fa49807205ce4d355092ef5a8a18f56e8913cf4a201fbe287825b095693c2177533620000f1565b50620000c77f0ce23c3e399818cfee81a7ab0880f714e53d7672b08df0fa62f2843416e1ea0933620000f1565b50600880546001600160a01b0319166001600160a01b039290921691909117905550620004519050565b60008281526006602090815260408083206001600160a01b038516845290915281205460ff166200019a5760008381526006602090815260408083206001600160a01b03861684529091529020805460ff19166001179055620001513390565b6001600160a01b0316826001600160a01b0316847f2f8788117e7eff1d82e926ec794901d17c78024a50270940304540a733656f0d60405160405180910390a45060016200019e565b5060005b92915050565b634e487b7160e01b600052604160045260246000fd5b600082601f830112620001cc57600080fd5b81516001600160401b0380821115620001e957620001e9620001a4565b604051601f8301601f19908116603f01168101908282118183101715620002145762000214620001a4565b816040528381526020925086838588010111156200023157600080fd5b600091505b8382101562000255578582018301518183018401529082019062000236565b600093810190920192909252949350505050565b6000806000606084860312156200027f57600080fd5b83516001600160401b03808211156200029757600080fd5b620002a587838801620001ba565b94506020860151915080821115620002bc57600080fd5b50620002cb86828701620001ba565b604086015190935090506001600160a01b0381168114620002eb57600080fd5b809150509250925092565b600181811c908216806200030b57607f821691505b6020821081036200032c57634e487b7160e01b600052602260045260246000fd5b50919050565b601f8211156200038057600081815260208120601f850160051c810160208610156200035b5750805b601f850160051c820191505b818110156200037c5782815560010162000367565b5050505b505050565b81516001600160401b03811115620003a157620003a1620001a4565b620003b981620003b28454620002f6565b8462000332565b602080601f831160018114620003f15760008415620003d85750858301515b600019600386901b1c1916600185901b1785556200037c565b600085815260208120601f198616915b82811015620004225788860151825594840194600190910190840162000401565b5085821015620004415787850151600019600388901b60f8161c191681555b5050505050600190811b01905550565b613c4b80620004616000396000f3fe60806040526004361061025c5760003560e01c806370a0823111610144578063b88d4fde116100b6578063dcc42fc21161007a578063dcc42fc214610635578063e3382fdf14610774578063e7705db614610789578063e985e9c5146107bd578063efc15ddb146107dd578063f08f4f64146107f057600080fd5b8063b88d4fde146106df578063bd464d37146106ff578063c87b56dd1461071f578063d2adbe791461073f578063d547741f1461075457600080fd5b8063a217fddf11610108578063a217fddf14610635578063a22cb4651461064a578063a787c80b1461066a578063a91d837d146106a2578063af3a19c7146106b5578063b558c6e3146106ca57600080fd5b806370a082311461057157806375b238fc1461059157806391d14854146105c557806395d89b41146105e55780639e29b67f146105fa57600080fd5b8063286cebc3116101dd5780633ccfd60b116101a15780633ccfd60b146104ba5780633cd18998146104cf57806342842e0e146104e45780634cd6959c146105045780636352211e146105315780636efd57dd1461055157600080fd5b8063286cebc31461041a5780632c9053de1461043a5780632f2ff15d1461045a5780632f9f30411461047a57806336568abe1461049a57600080fd5b8063095ea7b311610224578063095ea7b31461034b57806311cb98f81461036d57806313edb1cb1461039a57806323b872dd146103ca578063248a9ca3146103ea57600080fd5b806301ffc9a714610261578063068e58a01461029657806306fdde03146102ce578063070117c4146102f0578063081812fc1461032b575b600080fd5b34801561026d57600080fd5b5061028161027c366004613083565b610810565b60405190151581526020015b60405180910390f35b3480156102a257600080fd5b506008546102b6906001600160a01b031681565b6040516001600160a01b03909116815260200161028d565b3480156102da57600080fd5b506102e3610821565b60405161028d91906130f0565b3480156102fc57600080fd5b5061031d61030b36600461311f565b600b6020526000908152604090205481565b60405190815260200161028d565b34801561033757600080fd5b506102b661034636600461313a565b6108b3565b34801561035757600080fd5b5061036b610366366004613153565b6108dc565b005b34801561037957600080fd5b5061038d61038836600461313a565b6108eb565b60405161028d919061317d565b3480156103a657600080fd5b506102816103b536600461313a565b600c6020526000908152604090205460ff1681565b3480156103d657600080fd5b5061036b6103e536600461321a565b610ad3565b3480156103f657600080fd5b5061031d61040536600461313a565b60009081526006602052604090206001015490565b34801561042657600080fd5b5061036b61043536600461313a565b610b5e565b34801561044657600080fd5b5061036b6104553660046132f9565b610c02565b34801561046657600080fd5b5061036b610475366004613349565b610e3b565b34801561048657600080fd5b5061036b610495366004613375565b610e60565b3480156104a657600080fd5b5061036b6104b5366004613349565b611096565b3480156104c657600080fd5b5061036b6110ce565b3480156104db57600080fd5b5061031d600381565b3480156104f057600080fd5b5061036b6104ff36600461321a565b611165565b34801561051057600080fd5b5061052461051f36600461311f565b611180565b60405161028d919061342c565b34801561053d57600080fd5b506102b661054c36600461313a565b611536565b34801561055d57600080fd5b5061036b61056c36600461311f565b611541565b34801561057d57600080fd5b5061031d61058c36600461311f565b61156f565b34801561059d57600080fd5b5061031d7fa49807205ce4d355092ef5a8a18f56e8913cf4a201fbe287825b095693c2177581565b3480156105d157600080fd5b506102816105e0366004613349565b6115b7565b3480156105f157600080fd5b506102e36115e2565b34801561060657600080fd5b50610281610615366004613526565b8051602081830181018051600d8252928201919093012091525460ff1681565b34801561064157600080fd5b5061031d600081565b34801561065657600080fd5b5061036b610665366004613569565b6115f1565b34801561067657600080fd5b5061028161068536600461311f565b6001600160a01b03166000908152600b6020526040902054151590565b61036b6106b03660046132f9565b6115fc565b3480156106c157600080fd5b5061031d600481565b3480156106d657600080fd5b5061031d600281565b3480156106eb57600080fd5b5061036b6106fa3660046135a0565b611a21565b34801561070b57600080fd5b5061031d61071a366004613608565b611a39565b34801561072b57600080fd5b506102e361073a36600461313a565b611e4e565b34801561074b57600080fd5b5061031d611ec3565b34801561076057600080fd5b5061036b61076f366004613349565b611ed9565b34801561078057600080fd5b5061031d600181565b34801561079557600080fd5b5061031d7f0ce23c3e399818cfee81a7ab0880f714e53d7672b08df0fa62f2843416e1ea0981565b3480156107c957600080fd5b506102816107d8366004613686565b611efe565b61036b6107eb3660046136b0565b611f2c565b3480156107fc57600080fd5b5061052461080b36600461313a565b612347565b600061081b826123ba565b92915050565b606060008054610830906136e4565b80601f016020809104026020016040519081016040528092919081815260200182805461085c906136e4565b80156108a95780601f1061087e576101008083540402835291602001916108a9565b820191906000526020600020905b81548152906001019060200180831161088c57829003601f168201915b5050505050905090565b60006108be826123df565b506000828152600460205260409020546001600160a01b031661081b565b6108e7828233612417565b5050565b60608160006108f982612424565b6001600160a01b0316036109285760405162461bcd60e51b815260040161091f90613718565b60405180910390fd5b6000838152600a6020908152604080832080548251818502810185019093528083529193909284015b82821015610ac65783829060005260206000209060040201604051806080016040529081600082018054610984906136e4565b80601f01602080910402602001604051908101604052809291908181526020018280546109b0906136e4565b80156109fd5780601f106109d2576101008083540402835291602001916109fd565b820191906000526020600020905b8154815290600101906020018083116109e057829003601f168201915b50505050508152602001600182018054610a16906136e4565b80601f0160208091040260200160405190810160405280929190818152602001828054610a42906136e4565b8015610a8f5780601f10610a6457610100808354040283529160200191610a8f565b820191906000526020600020905b815481529060010190602001808311610a7257829003601f168201915b5050509183525050600282015460208083019190915260039092015460ff1615156040909101529082526001929092019101610951565b5050505091505b50919050565b6001600160a01b038216610afd57604051633250574960e11b81526000600482015260240161091f565b6000610b0a83833361243f565b9050836001600160a01b0316816001600160a01b031614610b58576040516364283d7b60e01b81526001600160a01b038086166004830152602482018490528216604482015260640161091f565b50505050565b7fa49807205ce4d355092ef5a8a18f56e8913cf4a201fbe287825b095693c21775610b888161266b565b816000610b9482612424565b6001600160a01b031603610bba5760405162461bcd60e51b815260040161091f90613718565b600083815260096020526040808220600801805460ff1916905551339185917f4ee38c7df843ad331cf99c0ee2cfabbbdc0f27ceb51253f4a0f576be8a22726f9190a3505050565b7fa49807205ce4d355092ef5a8a18f56e8913cf4a201fbe287825b095693c21775610c2c8161266b565b836000610c3882612424565b6001600160a01b031603610c5e5760405162461bcd60e51b815260040161091f90613718565b836004811115610c9f5760405162461bcd60e51b815260206004820152600c60248201526b24b73b30b634b2103a34b2b960a11b604482015260640161091f565b6000868152600960205260409020548511610cfc5760405162461bcd60e51b815260206004820152601a60248201527f5461726765742074696572206d75737420626520686967686572000000000000604482015260640161091f565b6000868152600960209081526040808320805489825542600790920191909155600a835292819020815160808101909252878252918101610d3e336014612678565b815242602080830191909152600160409092018290528354918201845560009384529092208151919260040201908190610d78908261378e565b5060208201516001820190610d8d908261378e565b50604082015160028201556060909101516003909101805460ff1916911515919091179055610dbb87611536565b6001600160a01b0316877fc343dde9827166508aab1c019307f4b10bc2462fbde971b0803a7fa860bf1da6838989604051610df89392919061384e565b60405180910390a386600080516020613bf683398151915286610e1c336014612678565b604051610e2a92919061386d565b60405180910390a250505050505050565b600082815260066020526040902060010154610e568161266b565b610b5883836127f8565b8433610e6b82611536565b6001600160a01b031614610e915760405162461bcd60e51b815260040161091f90613892565b60008681526009602052604090206008015460ff16610ee65760405162461bcd60e51b8152602060048201526011602482015270141c9bd99a5b19481cdd5cdc195b991959607a1b604482015260640161091f565b6001855110158015610efa57506032855111155b610f465760405162461bcd60e51b815260206004820152601b60248201527f496e76616c696420646973706c6179206e616d65206c656e6774680000000000604482015260640161091f565b6101f484511115610f885760405162461bcd60e51b815260206004820152600c60248201526b42696f20746f6f206c6f6e6760a01b604482015260640161091f565b606483511115610fce5760405162461bcd60e51b81526020600482015260116024820152704c6f636174696f6e20746f6f206c6f6e6760781b604482015260640161091f565b60c8825111156110165760405162461bcd60e51b81526020600482015260136024820152724176617461722055524c20746f6f206c6f6e6760681b604482015260640161091f565b600086815260096020526040902060028101611032878261378e565b5060038101611041868261378e565b5060048101611050858261378e565b506005810161105f848261378e565b50604051339088907f929b45f05d536b3a708a775eb2c04c88a7780b2663a22d5d5f157c2135036d4b90600090a350505050505050565b6001600160a01b03811633146110bf5760405163334bd91960e11b815260040160405180910390fd5b6110c9828261288c565b505050565b60006110d98161266b565b604051600090339047908381818185875af1925050503d806000811461111b576040519150601f19603f3d011682016040523d82523d6000602084013e611120565b606091505b50509050806108e75760405162461bcd60e51b815260206004820152601160248201527015da5d1a191c985dd85b0819985a5b1959607a1b604482015260640161091f565b6110c983838360405180602001604052806000815250611a21565b611188613007565b6001600160a01b0382166000908152600b6020526040812054908190036111ea5760405162461bcd60e51b81526020600482015260166024820152754164647265737320686173206e6f2070726f66696c6560501b604482015260640161091f565b600960008281526020019081526020016000206040518061018001604052908160008201548152602001600182018054611223906136e4565b80601f016020809104026020016040519081016040528092919081815260200182805461124f906136e4565b801561129c5780601f106112715761010080835404028352916020019161129c565b820191906000526020600020905b81548152906001019060200180831161127f57829003601f168201915b505050505081526020016002820180546112b5906136e4565b80601f01602080910402602001604051908101604052809291908181526020018280546112e1906136e4565b801561132e5780601f106113035761010080835404028352916020019161132e565b820191906000526020600020905b81548152906001019060200180831161131157829003601f168201915b50505050508152602001600382018054611347906136e4565b80601f0160208091040260200160405190810160405280929190818152602001828054611373906136e4565b80156113c05780601f10611395576101008083540402835291602001916113c0565b820191906000526020600020905b8154815290600101906020018083116113a357829003601f168201915b505050505081526020016004820180546113d9906136e4565b80601f0160208091040260200160405190810160405280929190818152602001828054611405906136e4565b80156114525780601f1061142757610100808354040283529160200191611452565b820191906000526020600020905b81548152906001019060200180831161143557829003601f168201915b5050505050815260200160058201805461146b906136e4565b80601f0160208091040260200160405190810160405280929190818152602001828054611497906136e4565b80156114e45780601f106114b9576101008083540402835291602001916114e4565b820191906000526020600020905b8154815290600101906020018083116114c757829003601f168201915b50505091835250506006820154602082015260078201546040820152600882015460ff161515606082015260098201546080820152600a82015460a0820152600b9091015460c0909101529392505050565b600061081b826123df565b600061154c8161266b565b50600880546001600160a01b0319166001600160a01b0392909216919091179055565b60006001600160a01b03821661159b576040516322718ad960e21b81526000600482015260240161091f565b506001600160a01b031660009081526003602052604090205490565b60009182526006602090815260408084206001600160a01b0393909316845291905290205460ff1690565b606060018054610830906136e4565b6108e73383836128f9565b823361160782611536565b6001600160a01b03161461162d5760405162461bcd60e51b815260040161091f90613892565b611635612998565b600084815260096020526040902054156116a65760405162461bcd60e51b815260206004820152602c60248201527f4d7573742062652054696572203020746f20757365204661726361737465722060448201526b3b32b934b334b1b0ba34b7b760a11b606482015260840161091f565b600083116116ee5760405162461bcd60e51b8152602060048201526015602482015274125b9d985b1a590811985c98d85cdd195c88119251605a1b604482015260640161091f565b6000838152600c602052604090205460ff161561174d5760405162461bcd60e51b815260206004820152601a60248201527f4661726361737465722046494420616c72656164792075736564000000000000604482015260640161091f565b600082511161178f5760405162461bcd60e51b815260206004820152600e60248201526d141c9bdbd9881c995c5d5a5c995960921b604482015260640161091f565b6008546040516347be6c4560e11b8152336004820152600160248201526001600160a01b0390911690638f7cd88a90604401602060405180830381865afa1580156117de573d6000803e3d6000fd5b505050506040513d601f19601f8201168201806040525081019061180291906138bd565b6118c357600854604051633d29946560e01b8152600160048201526000916001600160a01b031690633d29946590602401602060405180830381865afa158015611850573d6000803e3d6000fd5b505050506040513d601f19601f8201168201806040525081019061187491906138da565b9050803410156118c15760405162461bcd60e51b8152602060048201526018602482015277125b9cdd59999a58da595b9d08199959481c185e5b595b9d60421b604482015260640161091f565b505b6000848152600960208181526040808420600180825542600790920191909155878552600c8352818520805460ff19169091179055878452600a825292839020835160c0810190945260808401928352683330b931b0b9ba32b960b91b60a08501529183529091908101611936866129c2565b815242602080830191909152600160409092018290528354918201845560009384529092208151919260040201908190611970908261378e565b5060208201516001820190611985908261378e565b5060408281015160028301556060909201516003909101805460ff191691151591909117905551339085907fc343dde9827166508aab1c019307f4b10bc2462fbde971b0803a7fa860bf1da6906119e1906000906001906138f3565b60405180910390a383600080516020613bf6833981519152611a02856129c2565b604051611a0f9190613928565b60405180910390a2610b586001600755565b611a2c848484610ad3565b610b583385858585612a55565b336000908152600b602052604081205415611a965760405162461bcd60e51b815260206004820152601b60248201527f4164647265737320616c7265616479206861732070726f66696c650000000000604482015260640161091f565b6001845110158015611aaa57506032845111155b611af65760405162461bcd60e51b815260206004820152601b60248201527f496e76616c696420646973706c6179206e616d65206c656e6774680000000000604482015260640161091f565b6101f483511115611b385760405162461bcd60e51b815260206004820152600c60248201526b42696f20746f6f206c6f6e6760a01b604482015260640161091f565b606482511115611b7e5760405162461bcd60e51b81526020600482015260116024820152704c6f636174696f6e20746f6f206c6f6e6760781b604482015260640161091f565b600e805460009182611b8f83613979565b9091555090506000611ba2336014612678565b604051602001611bb29190613992565b60408051601f1981840301815261018083018252600080845260208481018381528585018c9052606086018b9052608086018a90528451808301865283815260a08701524260c0870181905260e087015260016101008701819052610120870184905261014087018490526101608701849052888452600990925293909120845181559251919450820190611c47908261378e565b5060408201516002820190611c5c908261378e565b5060608201516003820190611c71908261378e565b5060808201516004820190611c86908261378e565b5060a08201516005820190611c9b908261378e565b5060c0820151816006015560e082015181600701556101008201518160080160006101000a81548160ff021916908315150217905550610120820151816009015561014082015181600a015561016082015181600b0155905050600a60008381526020019081526020016000206040518060800160405280604051806040016040528060068152602001651dd85b1b195d60d21b8152508152602001611d4b336001600160a01b03166014612678565b815242602080830191909152600160409092018290528354918201845560009384529092208151919260040201908190611d85908261378e565b5060208201516001820190611d9a908261378e565b50604082015160028201556060909101516003909101805460ff1916911515919091179055611dc93383612b80565b336000818152600b60205260408082208590555184917f94c7a064468d8c8c92b4ce54d25c29022fbdb08117e1a0c6df34cbde87d3d2fb91611e0d91815260200190565b60405180910390a381600080516020613bf6833981519152611e30336014612678565b604051611e3d91906139cd565b60405180910390a250949350505050565b6060611e59826123df565b506000611e7160408051602081019091526000815290565b90506000815111611e915760405180602001604052806000815250611ebc565b80611e9b846129c2565b604051602001611eac9291906139fd565b6040516020818303038152906040525b9392505050565b60006001600e54611ed49190613a2c565b905090565b600082815260066020526040902060010154611ef48161266b565b610b58838361288c565b6001600160a01b03918216600090815260056020908152604080832093909416825291909152205460ff1690565b8233611f3782611536565b6001600160a01b031614611f5d5760405162461bcd60e51b815260040161091f90613892565b611f65612998565b60008481526009602052604090205460011015611fba5760405162461bcd60e51b815260206004820152601360248201527220b63932b0b23c903434b3b432b9103a34b2b960691b604482015260640161091f565b6000835111611ffc5760405162461bcd60e51b815260206004820152600e60248201526d125b9d985b1a590812d650c8125160921b604482015260640161091f565b600d8360405161200c9190613a3f565b9081526040519081900360200190205460ff161561206c5760405162461bcd60e51b815260206004820152601960248201527f43726f73736d696e7420494420616c7265616479207573656400000000000000604482015260640161091f565b60008251116120ae5760405162461bcd60e51b815260206004820152600e60248201526d141c9bdbd9881c995c5d5a5c995960921b604482015260640161091f565b6008546040516347be6c4560e11b8152336004820152600260248201526001600160a01b0390911690638f7cd88a90604401602060405180830381865afa1580156120fd573d6000803e3d6000fd5b505050506040513d601f19601f8201168201806040525081019061212191906138bd565b6121ea57600854604051633d29946560e01b8152600260048201526000916001600160a01b031690633d29946590602401602060405180830381865afa15801561216f573d6000803e3d6000fd5b505050506040513d601f19601f8201168201806040525081019061219391906138da565b9050803410156121e857803410156121e85760405162461bcd60e51b8152602060048201526018602482015277125b9cdd59999a58da595b9d08199959481c185e5b595b9d60421b604482015260640161091f565b505b60008481526009602052604090819020600281554260079091015551600190600d90612217908690613a3f565b9081526040805160209281900383018120805460ff1916941515949094179093556000878152600a835281812060c0850183526009608086019081526818dc9bdcdcdb5a5b9d60ba1b60a087015285528385018890524292850192909252600160608501819052825490810183559181529190912082516004909202019081906122a1908261378e565b50602082015160018201906122b6908261378e565b506040828101516002838101919091556060909301516003909201805460ff19169215159290921790915560008681526009602052819020549051339287927fc343dde9827166508aab1c019307f4b10bc2462fbde971b0803a7fa860bf1da6926123219290613a5b565b60405180910390a383600080516020613bf683398151915284604051611a0f9190613a90565b61234f613007565b81600061235b82612424565b6001600160a01b0316036123815760405162461bcd60e51b815260040161091f90613718565b600960008481526020019081526020016000206040518061018001604052908160008201548152602001600182018054611223906136e4565b60006001600160e01b03198216637965db0b60e01b148061081b575061081b82612be5565b6000806123eb83612424565b90506001600160a01b03811661081b57604051637e27328960e01b81526004810184905260240161091f565b6110c98383836001612c35565b6000908152600260205260409020546001600160a01b031690565b60008061244b84612424565b90506001600160a01b0381161580159061246d57506001600160a01b03851615155b156126575760008481526009602090815260409182902082518084019093526007835266155b9b985b595960ca1b918301919091529060028201906124b2908261378e565b5060408051602081019091526000815260038201906124d1908261378e565b5060408051602081019091526000815260048201906124f0908261378e565b50604080516020810190915260008152600582019061250f908261378e565b506000858152600a60205260408120905b81548110156125d157600082828154811061253d5761253d613ab9565b906000526020600020906004020160030160006101000a81548160ff021916908315150217905550867f69dee5bc1464f3213efdfff7bf81eb2cf678c00161b22fb5045cd18366f34f8683838154811061259957612599613ab9565b90600052602060002090600402016000016040516125b79190613acf565b60405180910390a2806125c981613979565b915050612520565b506001600160a01b0383166000908152600b602052604090205486900361260c576001600160a01b0383166000908152600b60205260408120555b6001600160a01b038088166000818152600b60205260408082208a905551919286169189917fce17dd930136cb49c8d4082c496b659280c0ba465f563314a4d7d68cf4dd6b4b91a450505b612662858585612d3b565b95945050505050565b6126758133612e2f565b50565b6060826000612688846002613b5a565b612693906002613b71565b67ffffffffffffffff8111156126ab576126ab613256565b6040519080825280601f01601f1916602001820160405280156126d5576020820181803683370190505b509050600360fc1b816000815181106126f0576126f0613ab9565b60200101906001600160f81b031916908160001a905350600f60fb1b8160018151811061271f5761271f613ab9565b60200101906001600160f81b031916908160001a9053506000612743856002613b5a565b61274e906001613b71565b90505b60018111156127c6576f181899199a1a9b1b9c1cb0b131b232b360811b83600f166010811061278257612782613ab9565b1a60f81b82828151811061279857612798613ab9565b60200101906001600160f81b031916908160001a90535060049290921c916127bf81613b84565b9050612751565b5081156127f05760405163e22e27eb60e01b8152600481018690526024810185905260440161091f565b949350505050565b600061280483836115b7565b6128845760008381526006602090815260408083206001600160a01b03861684529091529020805460ff1916600117905561283c3390565b6001600160a01b0316826001600160a01b0316847f2f8788117e7eff1d82e926ec794901d17c78024a50270940304540a733656f0d60405160405180910390a450600161081b565b50600061081b565b600061289883836115b7565b156128845760008381526006602090815260408083206001600160a01b0386168085529252808320805460ff1916905551339286917ff6391f5c32d9c69d2a47ea670b442974b53935d1edc7fd64eb21e047a839171b9190a450600161081b565b6001600160a01b03821661292b57604051630b61174360e31b81526001600160a01b038316600482015260240161091f565b6001600160a01b03838116600081815260056020908152604080832094871680845294825291829020805460ff191686151590811790915591519182527f17307eab39ab6107e8899845ad3d59bd9653f200f220920489ca2b5937696c31910160405180910390a3505050565b6002600754036129bb57604051633ee5aeb560e01b815260040160405180910390fd5b6002600755565b606060006129cf83612e68565b600101905060008167ffffffffffffffff8111156129ef576129ef613256565b6040519080825280601f01601f191660200182016040528015612a19576020820181803683370190505b5090508181016020015b600019016f181899199a1a9b1b9c1cb0b131b232b360811b600a86061a8153600a8504945084612a2357509392505050565b6001600160a01b0383163b15612b7957604051630a85bd0160e11b81526001600160a01b0384169063150b7a0290612a97908890889087908790600401613b9b565b6020604051808303816000875af1925050508015612ad2575060408051601f3d908101601f19168201909252612acf91810190613bd8565b60015b612b3b573d808015612b00576040519150601f19603f3d011682016040523d82523d6000602084013e612b05565b606091505b508051600003612b3357604051633250574960e11b81526001600160a01b038516600482015260240161091f565b805160208201fd5b6001600160e01b03198116630a85bd0160e11b14612b7757604051633250574960e11b81526001600160a01b038516600482015260240161091f565b505b5050505050565b6001600160a01b038216612baa57604051633250574960e11b81526000600482015260240161091f565b6000612bb88383600061243f565b90506001600160a01b038116156110c9576040516339e3563760e11b81526000600482015260240161091f565b60006001600160e01b031982166380ac58cd60e01b1480612c1657506001600160e01b03198216635b5e139f60e01b145b8061081b57506301ffc9a760e01b6001600160e01b031983161461081b565b8080612c4957506001600160a01b03821615155b15612d0b576000612c59846123df565b90506001600160a01b03831615801590612c855750826001600160a01b0316816001600160a01b031614155b8015612c985750612c968184611efe565b155b15612cc15760405163a9fbf51f60e01b81526001600160a01b038416600482015260240161091f565b8115612d095783856001600160a01b0316826001600160a01b03167f8c5be1e5ebec7d5bd14f71427d1e84f3dd0314c0f7b2291e5b200ac8c7c3b92560405160405180910390a45b505b5050600090815260046020526040902080546001600160a01b0319166001600160a01b0392909216919091179055565b600080612d4784612424565b90506001600160a01b03831615612d6357612d63818486612f40565b6001600160a01b03811615612da157612d80600085600080612c35565b6001600160a01b038116600090815260036020526040902080546000190190555b6001600160a01b03851615612dd0576001600160a01b0385166000908152600360205260409020805460010190555b60008481526002602052604080822080546001600160a01b0319166001600160a01b0389811691821790925591518793918516917fddf252ad1be2c89b69c2b068fc378daa952ba7f163c4a11628f55a4df523b3ef91a4949350505050565b612e3982826115b7565b6108e75760405163e2517d3f60e01b81526001600160a01b03821660048201526024810183905260440161091f565b60008072184f03e93ff9f4daa797ed6e38ed64bf6a1f0160401b8310612ea75772184f03e93ff9f4daa797ed6e38ed64bf6a1f0160401b830492506040015b6d04ee2d6d415b85acef81000000008310612ed3576d04ee2d6d415b85acef8100000000830492506020015b662386f26fc100008310612ef157662386f26fc10000830492506010015b6305f5e1008310612f09576305f5e100830492506008015b6127108310612f1d57612710830492506004015b60648310612f2f576064830492506002015b600a831061081b5760010192915050565b612f4b838383612fa4565b6110c9576001600160a01b038316612f7957604051637e27328960e01b81526004810182905260240161091f565b60405163177e802f60e01b81526001600160a01b03831660048201526024810182905260440161091f565b60006001600160a01b038316158015906127f05750826001600160a01b0316846001600160a01b03161480612fde5750612fde8484611efe565b806127f05750506000908152600460205260409020546001600160a01b03908116911614919050565b60405180610180016040528060008152602001606081526020016060815260200160608152602001606081526020016060815260200160008152602001600081526020016000151581526020016000801916815260200160008152602001600081525090565b6001600160e01b03198116811461267557600080fd5b60006020828403121561309557600080fd5b8135611ebc8161306d565b60005b838110156130bb5781810151838201526020016130a3565b50506000910152565b600081518084526130dc8160208601602086016130a0565b601f01601f19169290920160200192915050565b602081526000611ebc60208301846130c4565b80356001600160a01b038116811461311a57600080fd5b919050565b60006020828403121561313157600080fd5b611ebc82613103565b60006020828403121561314c57600080fd5b5035919050565b6000806040838503121561316657600080fd5b61316f83613103565b946020939093013593505050565b60006020808301818452808551808352604092508286019150828160051b87010184880160005b8381101561320c57603f198984030185528151608081518186526131ca828701826130c4565b915050888201518582038a8701526131e282826130c4565b838a0151878b015260609384015115159390960192909252505093860193908601906001016131a4565b509098975050505050505050565b60008060006060848603121561322f57600080fd5b61323884613103565b925061324660208501613103565b9150604084013590509250925092565b634e487b7160e01b600052604160045260246000fd5b600082601f83011261327d57600080fd5b813567ffffffffffffffff8082111561329857613298613256565b604051601f8301601f19908116603f011681019082821181831017156132c0576132c0613256565b816040528381528660208588010111156132d957600080fd5b836020870160208301376000602085830101528094505050505092915050565b60008060006060848603121561330e57600080fd5b8335925060208401359150604084013567ffffffffffffffff81111561333357600080fd5b61333f8682870161326c565b9150509250925092565b6000806040838503121561335c57600080fd5b8235915061336c60208401613103565b90509250929050565b600080600080600060a0868803121561338d57600080fd5b85359450602086013567ffffffffffffffff808211156133ac57600080fd5b6133b889838a0161326c565b955060408801359150808211156133ce57600080fd5b6133da89838a0161326c565b945060608801359150808211156133f057600080fd5b6133fc89838a0161326c565b9350608088013591508082111561341257600080fd5b5061341f8882890161326c565b9150509295509295909350565b6020815281516020820152600060208301516101808060408501526134556101a08501836130c4565b91506040850151601f198086850301606087015261347384836130c4565b9350606087015191508086850301608087015261349084836130c4565b935060808701519150808685030160a08701526134ad84836130c4565b935060a08701519150808685030160c0870152506134cb83826130c4565b92505060c085015160e085015260e08501516101008181870152808701519150506101206134fc8187018315159052565b86015161014086810191909152860151610160808701919091529095015193019290925250919050565b60006020828403121561353857600080fd5b813567ffffffffffffffff81111561354f57600080fd5b6127f08482850161326c565b801515811461267557600080fd5b6000806040838503121561357c57600080fd5b61358583613103565b915060208301356135958161355b565b809150509250929050565b600080600080608085870312156135b657600080fd5b6135bf85613103565b93506135cd60208601613103565b925060408501359150606085013567ffffffffffffffff8111156135f057600080fd5b6135fc8782880161326c565b91505092959194509250565b60008060006060848603121561361d57600080fd5b833567ffffffffffffffff8082111561363557600080fd5b6136418783880161326c565b9450602086013591508082111561365757600080fd5b6136638783880161326c565b9350604086013591508082111561367957600080fd5b5061333f8682870161326c565b6000806040838503121561369957600080fd5b6136a283613103565b915061336c60208401613103565b6000806000606084860312156136c557600080fd5b83359250602084013567ffffffffffffffff8082111561365757600080fd5b600181811c908216806136f857607f821691505b602082108103610acd57634e487b7160e01b600052602260045260246000fd5b602080825260169082015275141c9bd99a5b1948191bd95cc81b9bdd08195e1a5cdd60521b604082015260600190565b601f8211156110c957600081815260208120601f850160051c8101602086101561376f5750805b601f850160051c820191505b81811015612b775782815560010161377b565b815167ffffffffffffffff8111156137a8576137a8613256565b6137bc816137b684546136e4565b84613748565b602080601f8311600181146137f157600084156137d95750858301515b600019600386901b1c1916600185901b178555612b77565b600085815260208120601f198616915b8281101561382057888601518255948401946001909101908401613801565b508582101561383e5787850151600019600388901b60f8161c191681555b5050505050600190811b01905550565b83815282602082015260606040820152600061266260608301846130c4565b60408152600061388060408301856130c4565b828103602084015261266281856130c4565b6020808252601190820152702737ba10383937b334b6329037bbb732b960791b604082015260600190565b6000602082840312156138cf57600080fd5b8151611ebc8161355b565b6000602082840312156138ec57600080fd5b5051919050565b8281528160208201526060604082015260006127f06060830160098152683330b931b0b9ba32b960b91b602082015260400190565b6040815260006139516040830160098152683330b931b0b9ba32b960b91b602082015260400190565b82810360208401526127f081856130c4565b634e487b7160e01b600052601160045260246000fd5b60006001820161398b5761398b613963565b5060010190565b723234b21d3835b41d32b4b8189a9a9d1a9a1a9d60691b8152600082516139c08160138501602087016130a0565b9190910160130192915050565b6040815260066040820152651dd85b1b195d60d21b6060820152608060208201526000611ebc60808301846130c4565b60008351613a0f8184602088016130a0565b835190830190613a238183602088016130a0565b01949350505050565b8181038181111561081b5761081b613963565b60008251613a518184602087016130a0565b9190910192915050565b8281528160208201526060604082015260006127f060608301600981526818dc9bdcdcdb5a5b9d60ba1b602082015260400190565b60408152600061395160408301600981526818dc9bdcdcdb5a5b9d60ba1b602082015260400190565b634e487b7160e01b600052603260045260246000fd5b6000602080835260008454613ae3816136e4565b80848701526040600180841660008114613b045760018114613b1e57613b4c565b60ff1985168984015283151560051b890183019550613b4c565b896000528660002060005b85811015613b445781548b8201860152908301908801613b29565b8a0184019650505b509398975050505050505050565b808202811582820484141761081b5761081b613963565b8082018082111561081b5761081b613963565b600081613b9357613b93613963565b506000190190565b6001600160a01b0385811682528416602082015260408101839052608060608201819052600090613bce908301846130c4565b9695505050505050565b600060208284031215613bea57600080fd5b8151611ebc8161306d56fe6a023d0ce96c65962970bc84d26b6d7dd2963d3b897b9d44f799d15ddf5d359fa2646970667358221220574197823218240f08ec23a1be773365539f77f4890b8eb9ba8ad8d18dd90db764736f6c63430008140033",
  "linkReferences": {},
  "deployedLinkReferences": {}
}