{
  "_format": "hh-sol-artifact-1",
  "contractName": "TokenQualifier",
  "sourceName": "contracts/identity/TokenQualifier.sol",
  "abi": [
    {
      "inputs": [],
      "stateMutability": "nonpayable",
      "type": "constructor"
    },
    {
      "inputs": [
        {
          "internalType": "address",
          "name": "owner",
          "type": "address"
        }
      ],
      "name": "OwnableInvalidOwner",
      "type": "error"
    },
    {
      "inputs": [
        {
          "internalType": "address",
          "name": "account",
          "type": "address"
        }
      ],
      "name": "OwnableUnauthorizedAccount",
      "type": "error"
    },
    {
      "anonymous": false,
      "inputs": [
        {
          "indexed": true,
          "internalType": "address",
          "name": "previousOwner",
          "type": "address"
        },
        {
          "indexed": true,
          "internalType": "address",
          "name": "newOwner",
          "type": "address"
        }
      ],
      "name": "OwnershipTransferred",
      "type": "event"
    },
    {
      "inputs": [
        {
          "internalType": "uint256",
          "name": "tierLevel",
          "type": "uint256"
        },
        {
          "internalType": "address",
          "name": "tokenAddress",
          "type": "address"
        },
        {
          "internalType": "uint256",
          "name": "minimumBalance",
          "type": "uint256"
        }
      ],
      "name": "addQualifyingToken",
      "outputs": [],
      "stateMutability": "nonpayable",
      "type": "function"
    },
    {
      "inputs": [
        {
          "internalType": "uint256",
          "name": "tierLevel",
          "type": "uint256"
        },
        {
          "internalType": "address",
          "name": "tokenAddress",
          "type": "address"
        }
      ],
      "name": "getMinimumBalance",
      "outputs": [
        {
          "internalType": "uint256",
          "name": "",
          "type": "uint256"
        }
      ],
      "stateMutability": "view",
      "type": "function"
    },
    {
      "inputs": [
        {
          "internalType": "uint256",
          "name": "tierLevel",
          "type": "uint256"
        }
      ],
      "name": "getQualifyingTokens",
      "outputs": [
        {
          "internalType": "address[]",
          "name": "",
          "type": "address[]"
        }
      ],
      "stateMutability": "view",
      "type": "function"
    },
    {
      "inputs": [
        {
          "internalType": "uint256",
          "name": "tierLevel",
          "type": "uint256"
        }
      ],
      "name": "getRequiredFee",
      "outputs": [
        {
          "internalType": "uint256",
          "name": "",
          "type": "uint256"
        }
      ],
      "stateMutability": "view",
      "type": "function"
    },
    {
      "inputs": [
        {
          "internalType": "address",
          "name": "user",
          "type": "address"
        },
        {
          "internalType": "uint256",
          "name": "tierLevel",
          "type": "uint256"
        }
      ],
      "name": "hasQualifyingTokens",
      "outputs": [
        {
          "internalType": "bool",
          "name": "",
          "type": "bool"
        }
      ],
      "stateMutability": "view",
      "type": "function"
    },
    {
      "inputs": [],
      "name": "owner",
      "outputs": [
        {
          "internalType": "address",
          "name": "",
          "type": "address"
        }
      ],
      "stateMutability": "view",
      "type": "function"
    },
    {
      "inputs": [
        {
          "internalType": "uint256",
          "name": "",
          "type": "uint256"
        },
        {
          "internalType": "uint256",
          "name": "",
          "type": "uint256"
        }
      ],
      "name": "qualifyingTokensByTier",
      "outputs": [
        {
          "internalType": "address",
          "name": "",
          "type": "address"
        }
      ],
      "stateMutability": "view",
      "type": "function"
    },
    {
      "inputs": [
        {
          "internalType": "uint256",
          "name": "tierLevel",
          "type": "uint256"
        },
        {
          "internalType": "address",
          "name": "tokenAddress",
          "type": "address"
        }
      ],
      "name": "removeQualifyingToken",
      "outputs": [],
      "stateMutability": "nonpayable",
      "type": "function"
    },
    {
      "inputs": [],
      "name": "renounceOwnership",
      "outputs": [],
      "stateMutability": "nonpayable",
      "type": "function"
    },
    {
      "inputs": [
        {
          "internalType": "uint256",
          "name": "tierLevel",
          "type": "uint256"
        },
        {
          "internalType": "uint256",
          "name": "fee",
          "type": "uint256"
        }
      ],
      "name": "setTierFee",
      "outputs": [],
      "stateMutability": "nonpayable",
      "type": "function"
    },
    {
      "inputs": [
        {
          "internalType": "uint256",
          "name": "",
          "type": "uint256"
        }
      ],
      "name": "tierFees",
      "outputs": [
        {
          "internalType": "uint256",
          "name": "",
          "type": "uint256"
        }
      ],
      "stateMutability": "view",
      "type": "function"
    },
    {
      "inputs": [
        {
          "internalType": "uint256",
          "name": "",
          "type": "uint256"
        },
        {
          "internalType": "address",
          "name": "",
          "type": "address"
        }
      ],
      "name": "tokenRequirements",
      "outputs": [
        {
          "internalType": "uint256",
          "name": "",
          "type": "uint256"
        }
      ],
      "stateMutability": "view",
      "type": "function"
    },
    {
      "inputs": [
        {
          "internalType": "address",
          "name": "newOwner",
          "type": "address"
        }
      ],
      "name": "transferOwnership",
      "outputs": [],
      "stateMutability": "nonpayable",
      "type": "function"
    },
    {
      "inputs": [
        {
          "internalType": "uint256",
          "name": "tierLevel",
          "type": "uint256"
        },
        {
          "internalType": "address",
          "name": "tokenAddress",
          "type": "address"
        },
        {
          "internalType": "uint256",
          "name": "minimumBalance",
          "type": "uint256"
        }
      ],
      "name": "updateTokenRequirement",
      "outputs": [],
      "stateMutability": "nonpayable",
      "type": "function"
    }
  ],
  "bytecode": "0x608060405234801561001057600080fd5b50338061003757604051631e4fbdf760e01b81526000600482015260240160405180910390fd5b610040816100cf565b50600160205266038d7ea4c680007fcc69885fda6bcc1a4ace058b4a62bf5e179ea78fd58a1ccd71c22cc9b688792f55662386f26fc100007fd9d16d34ffb15ba3a3d852f0d403e2ce1d691fb54de27ac87cd2f993f3ec330f55600360005267016345785d8a00007f7dfe757ecd65cbd7922a9c0161e935dd7fdbcc0e999689c7d31633896b1fc60b5561011f565b600080546001600160a01b038381166001600160a01b0319831681178455604051919092169283917f8be0079c531659141344cd1fd0a4f28419497f9722a3daafe3b4186f6b6457e09190a35050565b610a8a8061012e6000396000f3fe608060405234801561001057600080fd5b50600436106100ea5760003560e01c8063715018a61161008c578063b06af96411610066578063b06af9641461020f578063b3075fb714610222578063f2fde38b14610242578063f9118f8d1461025557600080fd5b8063715018a6146101bf5780638da5cb5b146101c75780638f7cd88a146101ec57600080fd5b80633cec19c1116100c85780633cec19c11461012a5780633d299465146101535780636656fe6f146101815780636a8901e91461019457600080fd5b806330deb45d146100ef57806331caa6891461010457806332d9a21814610117575b600080fd5b6101026100fd36600461087c565b610268565b005b6101026101123660046108ba565b610282565b6101026101253660046108e6565b61042d565b61013d61013836600461091b565b6104f2565b60405161014a9190610934565b60405180910390f35b61017361016136600461091b565b60009081526001602052604090205490565b60405190815260200161014a565b61017361018f3660046108ba565b61055e565b6101736101a23660046108ba565b600260209081526000928352604080842090915290825290205481565b610102610588565b6000546001600160a01b03165b6040516001600160a01b03909116815260200161014a565b6101ff6101fa366004610981565b61059c565b604051901515815260200161014a565b6101d461021d36600461087c565b6106fa565b61017361023036600461091b565b60016020526000908152604090205481565b6101026102503660046109ab565b610732565b6101026102633660046108e6565b610770565b6102706107ff565b60009182526001602052604090912055565b61028a6107ff565b60008281526002602090815260408083206001600160a01b03851684529091529020546102f05760405162461bcd60e51b815260206004820152600f60248201526e151bdad95b881b9bdd08199bdd5b99608a1b60448201526064015b60405180910390fd5b60008281526002602090815260408083206001600160a01b0385168452825280832083905584835260039091528120905b815481101561042757826001600160a01b0316828281548110610346576103466109cd565b6000918252602090912001546001600160a01b0316036104155781548290610370906001906109f9565b81548110610380576103806109cd565b9060005260206000200160009054906101000a90046001600160a01b03168282815481106103b0576103b06109cd565b9060005260206000200160006101000a8154816001600160a01b0302191690836001600160a01b03160217905550818054806103ee576103ee610a0c565b600082815260209020810160001990810180546001600160a01b0319169055019055610427565b8061041f81610a22565b915050610321565b50505050565b6104356107ff565b60008381526002602090815260408083206001600160a01b03861684529091529020541561049b5760405162461bcd60e51b8152602060048201526013602482015272151bdad95b88185b1c9958591e481859191959606a1b60448201526064016102e7565b60008381526002602090815260408083206001600160a01b039095168084529482528083209390935593815260038452908120805460018101825590825292902090910180546001600160a01b0319169091179055565b60008181526003602090815260409182902080548351818402810184019094528084526060939283018282801561055257602002820191906000526020600020905b81546001600160a01b03168152600190910190602001808311610534575b50505050509050919050565b60008281526002602090815260408083206001600160a01b03851684529091529020545b92915050565b6105906107ff565b61059a600061082c565b565b6000818152600360209081526040808320805482518185028101850190935280835284938301828280156105f957602002820191906000526020600020905b81546001600160a01b031681526001909101906020018083116105db575b5050505050905060005b81518110156106ef576000828281518110610620576106206109cd565b60209081029190910181015160008781526002835260408082206001600160a01b0384168352909352919091205490915080156106da576040516370a0823160e01b81526001600160a01b038881166004830152839183918316906370a0823190602401602060405180830381865afa1580156106a1573d6000803e3d6000fd5b505050506040513d601f19601f820116820180604052508101906106c59190610a3b565b106106d857600195505050505050610582565b505b505080806106e790610a22565b915050610603565b506000949350505050565b6003602052816000526040600020818154811061071657600080fd5b6000918252602090912001546001600160a01b03169150829050565b61073a6107ff565b6001600160a01b03811661076457604051631e4fbdf760e01b8152600060048201526024016102e7565b61076d8161082c565b50565b6107786107ff565b60008381526002602090815260408083206001600160a01b03861684529091529020546107d95760405162461bcd60e51b815260206004820152600f60248201526e151bdad95b881b9bdd08199bdd5b99608a1b60448201526064016102e7565b60009283526002602090815260408085206001600160a01b039094168552929052912055565b6000546001600160a01b0316331461059a5760405163118cdaa760e01b81523360048201526024016102e7565b600080546001600160a01b038381166001600160a01b0319831681178455604051919092169283917f8be0079c531659141344cd1fd0a4f28419497f9722a3daafe3b4186f6b6457e09190a35050565b6000806040838503121561088f57600080fd5b50508035926020909101359150565b80356001600160a01b03811681146108b557600080fd5b919050565b600080604083850312156108cd57600080fd5b823591506108dd6020840161089e565b90509250929050565b6000806000606084860312156108fb57600080fd5b8335925061090b6020850161089e565b9150604084013590509250925092565b60006020828403121561092d57600080fd5b5035919050565b6020808252825182820181905260009190848201906040850190845b818110156109755783516001600160a01b031683529284019291840191600101610950565b50909695505050505050565b6000806040838503121561099457600080fd5b61099d8361089e565b946020939093013593505050565b6000602082840312156109bd57600080fd5b6109c68261089e565b9392505050565b634e487b7160e01b600052603260045260246000fd5b634e487b7160e01b600052601160045260246000fd5b81810381811115610582576105826109e3565b634e487b7160e01b600052603160045260246000fd5b600060018201610a3457610a346109e3565b5060010190565b600060208284031215610a4d57600080fd5b505191905056fea2646970667358221220f805879d50b5c5baaa514029b7e3b1474230a66b4908bcc03d7dba5970f24f1b64736f6c63430008140033",
  "linkReferences": {},
  "deployedLinkReferences": {}
}